:020000040800F2
:10000000C86D0020610200087B310008552F0008F0
:1000100079310008351C0008F535000800000000A3
:100020000000000000000000000000007F31000818
:10003000E91C0008000000007D3100088131000843
:100040007B0200087B0200087B0200087B0200089C
:100050007B0200087B0200087B0200087B0200088C
:100060007B0200087B0200087B0200087B0200087C
:100070007B0200087B0200087B0200087B0200086C
:10008000391C00087B0200087B0200087B02000884
:100090007B0200087B0200087B0200087B0200084C
:1000A0007B0200087B0200087B0200087B0200083C
:1000B0007B0200087B0200087B0200087B0200082C
:1000C0007B0200087B0200087B0200087B0200081C
:1000D0007B0200087B020008E93500087B0200086B
:1000E0007B0200087B0200087B0200087B020008FC
:1000F0007B0200087B0200087B0200087B020008EC
:100100007B0200087B0200087B0200087B020008DB
:100110007B0200087B0200087B0200087B020008CB
:100120007B0200087B0200087B0200087B020008BB
:100130007B0200087B0200087B0200087B020008AB
:100140007B0200087B0200087B0200087B0200089B
:100150007B0200087B0200087B0200087B0200088B
:100160007B0200087B0200087B0200087B0200087B
:100170007B0200087B0200087B02000800000000F0
:100180007B0200087B0200084B1C012B98BF7047C4
:100190002DE9F003911C9B08B1F80480B1F802909E
:1001A0000A8831F802CC8044814402448444D9F85E
:1001B0000070D8F800601568DCF80040C9F80060ED
:1001C000C8F80070CCF800501460D9F80470D8F862
:1001D00004605568DCF80440C9F80460C8F804708D
:1001E000CCF80450546008315B1ED5D1BDE8F00353
:1001F00070474B1C012B98BF70472DE9F003911CF1
:100200009B08B1F80480B1F802900A8831F802CC5A
:1002100000EB580800EB590900EB520200EB5C0CB4
:10022000D9F80070D8F800601568DCF80040C9F80B
:100230000060C8F80070CCF80050146008315B1EF4
:10024000DFD1BDE8F0037047DFF810D001F0E0FC2B
:100250000048004761620008AFF30080C86D0020CD
:100260000648804706480047FEE7FEE7FEE7FEE750
:10027000FEE7FEE7FEE7FEE7FEE7FEE719320008CD
:10028000490200082DE9F04791460D4604469708BB
:100290004FF0000866D000BF54F8046B54F8040B0C
:1002A000014601F074FA82463146084601F06FFAC1
:1002B000514601F014FA2E1D10F1FF4F28BFC5F86A
:1002C000008002D206F0AEF9286054F8045B54F8BE
:1002D000040B014601F05BFA82462946084601F00C
:1002E00056FA514601F0FBF9351D10F1FF4F28BFBA
:1002F000C6F8008002D206F095F9306054F8046B1D
:1003000054F8040B014601F042FA82463146084691
:1003100001F03DFA514601F0E2F92E1D10F1FF4FB8
:1003200028BFC5F8008002D206F07CF9286054F896
:10033000045B54F8040B014601F029FA8246294671
:10034000084601F024FA514601F0C9F9351D10F1B3
:10035000FF4F28BFC6F8008002D206F063F9306074
:100360007F1E99D119F0030608BFBDE8F08700BFD2
:1003700054F8047B54F8040B014601F008FA814656
:100380003946084601F003FA494601F0A8F92F461C
:100390002D1D10F1FF4F28BFC7F8008002D206F0D4
:1003A00041F93860761EE3D1BDE8F0872DE9F34FBF
:1003B0009BB00C461B98008801EB80051B994008F8
:1003C00004EB8006D1F804800590CDE90B5405EBD1
:1003D00080075FEA900900F0048123680293626855
:1003E0001792A2681A92E268159229680E916868BD
:1003F0000690A8681290E8681190306818907268AA
:100400000792B2681692F2680392D7E900A013909F
:10041000B86810901846D7F80CB001F060F944F8AD
:10042000040B0699179801F05AF944F8040B129935
:100430001A9801F054F944F8040B1199159801F039
:100440004EF944F8040B0E99029801F09AF90E90B7
:100450000699179801F095F9069012991A9801F0EB
:1004600090F912901199159801F08BF9119051465D
:10047000189801F034F946F8040B1399079801F025
:100480002EF946F8040B1099169801F028F946F851
:10049000040B5946039801F022F946F8040B504624
:1004A000189901F06EF914900799139801F069F901
:1004B00013901699109801F064F91090584603991A
:1004C00001F05FF9824658F8040B019058F804BB1C
:1004D00001990E9801F05BF903905946069801F0D6
:1004E00056F902900199069801F051F90690594683
:1004F0000E9801F04CF90790DDE9021001F0EFF8D9
:1005000045F8040BDDE9060101F03BF945F8040B61
:100510005946149801F03BF903900199139801F0A2
:1005200036F902905946139801F031F90690019975
:10053000149801F02CF98346DDE9021001F021F94D
:1005400047F8040B5946069801F0C9F847F8040B20
:1005500058F8040B019058F804BB0199129801F067
:1005600016F903905946119801F011F9029001997A
:10057000119801F00CF906905946129801F007F90C
:100580000790DDE9021001F0AAF845F8040BDDE957
:10059000060101F0F6F845F8040B5946109801F0F1
:1005A000F6F803905046019901F0F1F80290504698
:1005B000594601F0ECF883460199109801F0E7F8EC
:1005C0008246DDE9021001F0DCF847F8040B5146E1
:1005D000584601F084F847F8040BB9F101097FF49B
:1005E000FCAE1B980223059942680C9800F0F8FBBA
:1005F0001B980599022342680B981DB0BDE8F04F87
:1006000000F0EEBB2DE9F34FA7B00F462798008806
:10061000400801EB800404EB800606EB8005189689
:100620001A95CDE91D412799A5F1040A0AEB800925
:100630004968400806900A910420199006200E91FE
:100640000D911590306801903868A4F1040BA6F163
:1006500004080090019901F042F80290DDE90001E0
:1006600001F08FF803907068059078680190059903
:1006700001F035F800900599019801F082F8019099
:10068000606810900146039801F029F869680C91A0
:1006900001F077F8169020680F900146019801F05C
:1006A00070F82968059101F01AF811900F990298D5
:1006B00001F067F8059901F064F81490109900981A
:1006C00001F05FF80C9901F05CF80B901099039819
:1006D00001F057F80C9901F002F80C900F9901986D
:1006E00000F0FDFF059901F04CF812900F99029867
:1006F00000F0F5FF059900F0F2FF47F8040B616880
:10070000009800F0ECFF696800F0E9FF47F8040B7F
:10071000169844F8040B119844F8040B149846F802
:10072000040B0B9846F8040B0C9845F8040B129830
:1007300045F8040B0A9901F108000D990A9001F19E
:1007400010000E990D9001F118000E900698801E71
:100750004008209000F0C681306801903868009011
:10076000019900F0BCFF0290DDE9000101F009F8F9
:1007700003907068059078680190059900F0AFFFCC
:1007800000900599019800F0FCFF019060680C90C2
:100790000146039800F0A3FF6968109100F0F1FF93
:1007A000169020680F900146019800F0EAFF296832
:1007B000059100F094FF11900F99029800F0E1FF6D
:1007C000059900F0DEFF14900C99009800F0D9FF15
:1007D000109900F0D6FF0B900C99039800F0D1FF10
:1007E000109900F07CFF0C900F99019800F077FFB2
:1007F000059900F0C6FF12900F99029800F06FFF64
:10080000059900F06CFF47F8040B6168009800F050
:1008100066FF696800F063FF47F8040B5AF8040CA0
:1008200002905BF8040C0190029900F058FF0090D0
:10083000DDE9010100F0A5FF0190DAF80000059064
:10084000DBF800000390059900F049FF029005993C
:10085000039800F096FF10900390D9F800000590DF
:10086000D8F800001390059900F08BFF22900199B1
:1008700000F035FF269058F8041C1098109100F0F5
:1008800080FF59F8041C0F9100F029FF2390109964
:10089000009800F076FF0F9900F073FF24901399F1
:1008A000029800F06EFF059900F06BFF219001990E
:1008B000229800F066FF2290DDE90F0100F061FF51
:1008C000039900F05EFF17901399029800F007FF5C
:1008D000059900F004FFCBF80000ABF104011F9173
:1008E00058F8041C009800F0FAFE59F8041C00F0B7
:1008F000F6FE1F99ABF1080B08600A98006801909A
:100900000A984168009108300A900199169800F001
:100910003EFF10900099119800F039FF0F90019957
:10092000119800F034FF03900099169800F02FFF03
:100930000290DDE90F1000F0D2FE44F8040BDDE96F
:10094000021000F01EFF44F8040B0099239800F0F9
:100950001EFF10900199269800F019FF0F90009942
:10096000269800F014FF03900199239800F00FFFE0
:100970000290DDE90F1000F004FFA8F10401C8F8AF
:1009800000001C91DDE9021000F0A9FE1C99A8F1FD
:10099000080808600D980D99006801900D9840684E
:1009A0000090199801EB80000D900199149800F0C7
:1009B000EEFE109000990B9800F0E9FE0F9001995F
:1009C0000B9800F0E4FE03900099149800F0DFFE0D
:1009D0000290DDE90F1000F082FE46F8040BDDE91D
:1009E000021000F0CEFE46F8040B2198019980F029
:1009F000004000F0CCFE10900099249800F0C7FE53
:100A00000F900199249800F0C2FE0390009921985C
:100A100000F0BDFE0290DDE90F1000F0B2FEAAF179
:100A20000401CAF800000991DDE9020100F0A9FE05
:100A30000999AAF1080A08600E98006801900E98BA
:100A40001599406800900E9800EB81000E90019976
:100A50000C9800F09CFE10900099129800F097FE00
:100A60000F900199129800F092FE039000990C9853
:100A700000F08DFE0290DDE90F1000F030FE45F829
:100A8000040BDDE9021000F07CFE45F8040B009930
:100A9000179800F07CFE10900199229800F077FEE4
:100AA0000F900099229800F072FE03900199179818
:100AB00000F06DFE0290DDE90F1000F062FEA9F17A
:100AC0000401C9F800001B91DDE9021000F007FEE7
:100AD0001B99A9F1080908602098401E20907FF416
:100AE0003BAE00BFD6F80080D7F80090414648469C
:100AF00000F0F5FD02904146484600F042FE0390AA
:100B0000D6F80490D7F804804946404600F0E7FD47
:100B100000904946404600F034FE019060680F9016
:100B20000146039800F0DBFDD5F80490494600F03B
:100B300028FE8346206809900146019800F021FEB6
:100B40002968059100F0CBFD82460999029800F0D2
:100B500018FE059900F015FE80460F99009800F0E8
:100B600010FE494600F00DFE0B900F99039800F01F
:100B700008FE494600F0B3FD0C900999019800F079
:100B8000AEFD059900F0FDFD81460999029800F03F
:100B9000A6FD059900F0A3FD38606168009800F09B
:100BA0009EFD696800F09BFD78600A98D0E90070AE
:100BB00000905846394600F0EAFD109050460099E2
:100BC00000F0E5FD0F905046394600F0E0FD074685
:100BD0005846009900F0DBFD8246DDE90F1000F079
:100BE0007EFD20605146384600F0CBFD60600D98D8
:100BF000D0E900474046214600F0C9FD834639460A
:100C00000B9800F0C4FD824621460B9800F0BFFD12
:100C100004464046394600F0BAFD0746514658465C
:100C200000F05DFD30603946204600F0AAFD70609E
:100C30000E98D0E9004621460C9800F0A8FD8046A9
:100C40004846314600F0A3FD07464846214600F0DD
:100C50009EFD044631460C9800F099FD0646394643
:100C6000404600F03CFD28603146204600F089FDFA
:100C7000686027980423069942681E9800F0B0F82F
:100C800027980423069942681D9800F0A9F8279830
:100C9000042306994268189800F0A2F8279806994C
:100CA000042342681A9829B0BDE8F04F00F098B8C4
:100CB0002DE9F0410588984617460C460646012A5C
:100CC00018D1201DB5B1083815F0010F04D050F827
:100CD000081F81F00041016069080BD050F8082F0F
:100CE000491E82F0004240F8082B026882F0004260
:100CF0000260F3D1B5F5807F1BD008DC102D13D036
:100D0000202D16D0402D19D0802D0DD01CE0B5F52A
:100D1000007F13D0B5F5806F06D0B5F5006F08D011
:100D2000B5F5805F0AD00FE021463046FFF73EFB65
:100D30000AE021463046FFF765FC05E0294601231D
:100D40002046726800F04CF8B8F1000F04D0B18969
:100D50002046B268FFF718FA012F18BFBDE8F081EE
:100D6000284600F065FE01464FF07E5000F041FD40
:100D70000646002D08BFBDE8F081083C15F0010FC4
:100D80000CD03146A06800F002FDA060E06831465A
:100D900080F0004000F0FBFCE06008346D0808BF04
:100DA000BDE8F0813146A06800F0F1FCA060E06889
:100DB000314680F0004000F0EAFCE06031462069F6
:100DC00000F0E5FC20616069314680F0004000F0F1
:100DD000DEFC606110346D1EE4D1BDE8F0810000DE
:100DE0002DE9FF4FB3B00446349D2895ED08002649
:100DF00006EB050A0AEB050909EB050808EB050BEC
:100E00000BEB05004719229078192A9054F83B0003
:100E1000039054F836000290039900F060FC0090B3
:100E2000DDE9020100F0ADFC0990229854F8300091
:100E3000039054F83A000290039900F050FC05909A
:100E4000DDE9020100F09DFC089054F837000390A2
:100E500054F839000290039900F041FC1590DDE947
:100E6000020100F08EFC14902A9854F8300004908F
:100E700054F838000390049900F031FC0290DDE949
:100E8000030100F07EFC13901599009800F079FCA6
:100E900004901599009800F022FC009002990598A2
:100EA00000F06FFC15900299059800F018FC0146BF
:100EB0000590009800F013FC44F83600059900985E
:100EC00000F05FFC44F83B0004EBCB000D90406861
:100ED00004EBC60B0390DBF804000290039900F0CA
:100EE000FEFB0090DDE9020100F04BFC0690229829
:100EF00004EBC00016904068039004EBCA000E900B
:100F000040680290039900F0EAFB0590DDE90201D8
:100F100000F037FC079004EBC7001A90406803907C
:100F200004EBC900199040680290039900F0D7FBC8
:100F30001090DDE9020100F024FC0F902A9804EBE8
:100F4000C00018904068039004EBC80017904068F8
:100F50000B90039900F0C3FB029003990B9800F0EB
:100F600010FC12901099009800F00BFC039010995F
:100F7000009800F0B4FB00900299059800F001FC85
:100F800010900299059800F0AAFB01460590009880
:100F900000F0A5FBCBF804000599009800F0F1FBE8
:100FA00001460D9841601099049800F098FB44F8B0
:100FB00039001099049800F0E4FB44F837001599C3
:100FC000039800F0DEFB01461998416015990398DB
:100FD00000F085FB01461A9841601399089800F0CB
:100FE000D0FBFE4F394600F0D2FB8146139908989A
:100FF00000F075FB394600F0CAFB0890129907987B
:1010000000F0BFFB394600F0C2FB834612990798F7
:1010100000F065FB394600F0BAFB07904946099895
:1010200000F0AFFB04904946099800F058FB099086
:101030000899149800F0A5FB13900899149800F0F3
:101040004EFB14905946069800F09BFB03905946BE
:10105000069800F044FB069007990F9800F091FB6A
:10106000814607990F9800F03AFB8346014609989C
:1010700000F035FB44F83A005946099800F081FB2E
:1010800001462A9844F830104946049800F027FB9E
:101090000146229844F830104946049800F071FB4C
:1010A00044F838001499069800F06BFB01460E983E
:1010B00041601499069800F012FB014618984160AF
:1010C0001399039800F05DFB01461698416013994F
:1010D000039800F004FB01461798416028980644E5
:1010E00034988642FFF484AE082D3CBF37B0BDE88B
:1010F000F08F00201D9001201B9036991D98359F80
:1011000008441D90DDF874804200161857F83870B6
:101110000E97359F810001EB000C57F832700C9749
:10112000359F0CEB0003184457F836702097359F15
:1011300057F831701997359F57F83C700B97359FCA
:1011400057F833702597359F57F830702997359F9A
:1011500007EBC8077F681797359F07EBC20207EBBD
:10116000C10152681A9207EBC60207EBC000526831
:101170001E924968189107EBCC011B9E4968279184
:1011800007EBC3014968239140681C90771907EB6E
:10119000050808EB050909EB050A0AEB050B0BEB43
:1011A0000500219028442A9054F83A00039054F8FE
:1011B00036000290039900F092FA0090DDE90201F6
:1011C00000F0DFFA099054F83B00039054F8370020
:1011D0000290039900F083FA0590DDE9020100F026
:1011E000D0FA0890219854F83000039054F8380051
:1011F0000290039900F073FA1590DDE9020100F006
:10120000C0FA14902A9854F83000049054F8390029
:101210000390049900F063FA0290DDE9030100F005
:10122000B0FA13901599009800F0ABFA0490159954
:10123000009800F054FA00900299059800F0A1FA85
:1012400015900299059800F04AFA01460590009819
:1012500000F045FA44F836000599009800F091FA3C
:10126000059004EBCA002B904068039004EBC60085
:10127000169040680090039900F031FA02900399AB
:10128000009800F07EFA069004EBCB002D904068A9
:10129000039004EBC7002C9040680090039900F085
:1012A0001EFA0D900399009800F06BFA07902198B0
:1012B00004EBC0002F904068039004EBC8002E9010
:1012C00040680090039900F00AFA10900399009882
:1012D00000F057FA0F902A9804EBC0003090406855
:1012E000129004EBC900319040680390129900F00D
:1012F000F6F900901299039800F043FA12901099B1
:10130000029800F03EFA03901099029800F0E7F975
:10131000029000990D9800F034FA109000990D9801
:1013200000F0DDF90D901099049800F0D8F90090C4
:101330001099049800F025FA04900D99029800F095
:10134000CEF90146169841600D99029800F019FAFD
:101350000D901599039800F014FA029015990398CE
:1013600000F0BDF903900599199800F010FA169055
:101370000D99189800F00BFA15900D99199800F036
:1013800006FA0D900599189800F001FA0590DDE92C
:10139000151000F0A4F944F83A0005990D9800F0F2
:1013A000F0F901462B98416000990C9800F0EFF994
:1013B000169002991A9800F0EAF9824602990C9860
:1013C00000F0E5F90D9000991A9800F0E0F9059009
:1013D0005146169800F083F902E00000F304353F0F
:1013E00044F8380005990D9800F0CBF901462E9885
:1013F00041600499259800F0CAF982460399239820
:1014000000F0C5F980460399259800F0C0F90D90C9
:101410000499239800F0BBF905904146504600F02E
:101420005EF90146219844F8301005990D9800F0B6
:10143000A8F901462F9841601399089800F0A1F986
:10144000844900F0A4F980461399089800F047F900
:10145000804900F09CF982461299079800F091F9B2
:101460007C4900F094F902901299079800F037F93E
:10147000784900F08CF907904146099800F081F90D
:1014800004904146099800F02AF9099051461498B1
:1014900000F077F913905146149800F020F9149059
:1014A0000299069800F06DF903900299069800F0F1
:1014B00016F9069007990F9800F063F9824607998C
:1014C0000F9800F00CF980460146099800F007F9E2
:1014D00000904146099800F054F90990514604984B
:1014E00000F0FDF808905146049800F04AF9049085
:1014F0001499069800F045F980461499069800F072
:10150000EEF806901399039800F03BF907901399B1
:10151000039800F0E4F8039000990E9800F037F972
:1015200016904146179800F032F9824641460E98CF
:1015300000F02DF90D900099179800F028F98046D9
:101540005146169800F0CBF844F8370041460D9804
:1015500000F017F901462C9841600999299800F08C
:1015600016F9824606991C9800F011F980460699F2
:10157000299800F00CF90D9009991C9800F007F9D2
:1015800007464146504600F0AAF801462A9844F81A
:10159000301039460D9800F0F4F80146309841605B
:1015A00008990B9800F0F3F880460799279800F007
:1015B000EEF8824607990B9800F0E9F80D9008992B
:1015C000279800F0E4F807465146404600F087F8B7
:1015D00044F83B0039460D9800F0D3F801462D98A9
:1015E00041600499209800F0D2F8834603991E9830
:1015F00000F0CDF882460399209800F0C8F88046A4
:1016000004991E9800F0C3F807465146584600F06A
:1016100066F844F839003946404600F0B2F8014611
:10162000319841602898064434988642FFF4AEAD64
:101630001B98401C1B9085423FF65FAD36984FF6D5
:10164000FF7101EAC0003690072D3FF6CEAB37B0F0
:10165000BDE8F08FF304353F2DE9F05F054600202B
:1016600092469B4688460646814640241BE0284613
:1016700041464746224600F026FA53465A46C01ACB
:10168000914110D311461846224600F00DFA2D1A4A
:1016900067EB01084F4622460120002100F004FAC2
:1016A00017EB00094E41201EA4F10104DFDC48467F
:1016B00031462A464346BDE8F09FD2B201E000F829
:1016C000012B491EFBD270470022F6E710B51346E6
:1016D0000A4604461946FFF7F0FF204610BDF0B455
:1016E00080EA0102D40F4200B2EB410F02D202465F
:1016F000084611464A0042D0C30DDDB2C1F3C752BD
:10170000AD1A202D35DAC1F3160141F4000204B1FF
:101710005242C5F1200602FA06F12A411044B3EB09
:10172000D05F23D0C4B1012DA0EBC35009DCF0BCC5
:101730004FF0004202EAC352DBB200F5000000F0B5
:10174000DBB9400000F1807000EBC350A0F1807065
:1017500040EAD170490009E0490841EAC071A0EBB4
:10176000C35000F50000400800EBC350F0BC00F08F
:10177000BAB96142012202EB4101001BF6E7F0BC5D
:10178000704781F00041AAE780F00040A7E780EAB7
:10179000010210B502F00043400022D04A001FD0E1
:1017A000010E01EB1261C0F35600C2F3560240F481
:1017B000000042F40002A0FB022000047F39140460
:1017C00000D0401C50EA124001D44000491EC2B271
:1017D0000C0604EBD010401C4008802A02D003E025
:1017E000002010BD20F00100002900DA002018437D
:1017F00010BD30B480EA010202F0004530F0004232
:1018000021F0004013D090B1C30DD40DC2F31601E6
:10181000C0F31600E41A41F4000140F400027D34E4
:10182000914201D3641C00E04900002C02DA30BC74
:10183000002070474FF400000023914201D3891A21
:10184000034340084FEA4101F7D151B1914202D11F
:101850004FF0004105E002D24FF0010101E06FF0CE
:10186000010103EBC450284430BC00F03CB92DE921
:10187000FE4F81EA030404F0004421F0004100948B
:101880004FF0000B23F0004350EA01045ED052EA0F
:1018900003045BD0C3F30A54C1F30A552C44A4F2E9
:1018A000F3340194A0FB0254C1F3130141F48011FD
:1018B000C3F3130343F4801301FB024400FB034E04
:1018C000840A970A44EA815447EA8357A4FB0768CD
:1018D00002958D0A05FB07854FEA932C04FB0C54F7
:1018E0002705029D4FEA065847EA1637B5EB08056B
:1018F0006EEB070C870E920E47EA811742EA8312BD
:10190000A7FB0201B6EB0B0164EB00042B0D43EACD
:101910000C335E1844EB1C50DA465146E7FB0201DB
:10192000C5F313044FEA0B3343EA14534FEA04326E
:10193000019C43EA0603A4F10C040294009CCDE947
:1019400000B400F016F903B0BDE8F08F00200146A6
:10195000F9E72DE9F04D81EA030404F0004B21F092
:10196000004514464FF0000A23F0004150EA0502FA
:1019700020D054EA01021DD0C5F30A570246C5F330
:101980001303C1F31300C1F30A5640F4801543F466
:101990008013A7EB0608101BD64608F2FD3873EB40
:1019A000050002D308F1010801E092185B41B8F18B
:1019B000000F03DA00200146BDE8F08D00204FF44F
:1019C0008011064684460EE0171B73EB050705D30E
:1019D000121B63EB050306434CEA010C49084FEA6E
:1019E000300092185B4150EA0107EDD152EA030042
:1019F00012D082EA040083EA0501084305D0101BD7
:101A0000AB4106D20122002306E000224FF0004342
:101A100002E06FF0010253101AEB06004CEB085184
:101A200010EB0A0041EB0B01BDE8F04D00F092B85D
:101A300096230022114600F05FB80EB5C10F80EA70
:101A4000E0700844CA07002140F233438DE80E00DD
:101A50000A460B4600F08DF803B000BD0EB540F20B
:101A6000334102910021CDE900110A460B4600F0F6
:101A700080F803B000BDC1F30A5210B5C1F31301E1
:101A800040F2FF3341F480119A4201DA002010BD88
:101A900040F233439A42A2F2334203DC524200F056
:101AA00012F810BD904010BD202A04DB203A00FA45
:101AB00002F1002070479140C2F1200320FA03F3A5
:101AC000194390407047202A04DB203A21FA02F0A3
:101AD0000021704721FA02F3D040C2F12002914068
:101AE0000843194670470029A8BF7047401C4900A9
:101AF00008BF20F00100704710B4B0FA80FC00FA73
:101B00000CF050EA010404BF10BC704749B1CCF19D
:101B1000200421FA04F411FA0CF118BF0121214329
:101B20000843A3EB0C01CB1D4FEA00614FEA1020E4
:101B300042BF002010BC704700EBC3501044002986
:101B4000A4BF10BC7047401C490008BF20F0010032
:101B500010BC704710B5141E73F1000408DA401C65
:101B600041F1000192185B411A4301D120F00100BC
:101B700010BD2DE9F04D92469B4611B1B1FA81F2AC
:101B800002E0B0FA80F220329046FFF78DFF044663
:101B90000F4640EA0A0041EA0B0153465A46084301
:101BA00013D0114653EA010019D0C8F14002504643
:101BB000FFF789FF05460E46504659464246FFF755
:101BC00073FF084305D0012004E020463946BDE8F4
:101BD000F08D0020054346EAE0762C4337430A980F
:101BE0006305E40AA0EB08000022FD0A44EA47541A
:101BF0000A3002D500200146E9E7010510196941C4
:101C0000DDE9084500196941BDE8F04DA2E7000093
:101C1000064C074D06E0E06840F0010394E8070039
:101C200098471034AC42F6D3FEF712FBDCF3000801
:101C3000FCF30008FEE70000014800F029B90000AD
:101C40000869002001681823CAB2103AB2FBF3F207
:101C5000054B6FF30901032A9B5CC36500D9091D7D
:101C600081650846704700006866000810B50146A7
:101C700000208B698A6A4FF0C07453B1B3F5005FDE
:101C800015D072B1012A0CD0022A0AD0032A09D138
:101C900004E01AB1012A06D0022A03D1C96AC90197
:101CA00000D5012010BDC96AA142FAD010BD002A9A
:101CB000F7D0012AF2D0022AF3D0032AF3D010BDC4
:101CC00030B50468256825F48025256004686360C4
:101CD0008368402B036803D099600068C26030BD00
:101CE0009A600068C16030BD704772B6FEE70000C0
:101CF00030B5B3F5804F05D06FF0704140F8221039
:101D0000002030BD8C690B688D6823434C6889893D
:101D1000240144EA0524234343EA014150F82230D8
:101D2000014C23401943E9E70000F0CF10B50A68E1
:101D300050F8223023F0010340F822308C68082C40
:101D400023D000234A682243CC681C430B692243FA
:101D50001A434B690E4C1A43CB691A430B6A1A4358
:101D60004B6A1A438B6A1A43CB6A1A430B6B1A43AA
:101D70008B691343CA6B09681A4350F82130A34397
:101D8000134340F82130002010BD4023DAE7000063
:101D90007FFF0F0030B5D1E9003443EA04138C68AB
:101DA0008D89240244EA054423430C8A094D00EB43
:101DB000820005EB045423430C7D6D0105EB0464A4
:101DC000896923430B43416801F040410B43436061
:101DD000002030BD0000F0FF2DE9F0410446876D82
:101DE00000F02CFB064694F835000025022806D0AA
:101DF0008020606584F834500120BDE8F0812068BF
:101E0000016821F0160101602068416921F080011C
:101E10004161206C08B9A06C20B12068016821F0F4
:101E2000080101602068016821F0010101600CE0F7
:101E300000F004FB801B052807D9202060650320E3
:101E400084F8350084F83450D7E720680068C0076C
:101E5000EED194F85C103F208840B860012084F8EF
:101E6000350084F834500020C7E790F83510022977
:101E700003D08021416501207047052180F835108D
:101E80000068016821F00101016000207047000036
:101E90002DE9F84304464FF00009CDF8009063485F
:101EA0004FF41651A56D0068B0FBF1F72E6894F859
:101EB0005C10082000FA01F131420FD021680A6855
:101EC00052070BD50A6822F004020A6094F85C10ED
:101ED0008840A860606D40F00100606594F85C1077
:101EE0004FF0010808FA01F0304208D02168496932
:101EF000090604D5A860606D40F00200606594F8A2
:101F00005C1004208840304208D0216809688907A5
:101F100004D5A860606D40F00400606594F85C1022
:101F200010208840304218D021680968090714D56C
:101F3000A86020680168490304D50068000308D53B
:101F4000A16C07E00168C90503D4016821F008010C
:101F50000160216C09B12046884794F85C1020206C
:101F60008840304231D021680968C9062DD5A86063
:101F700094F8350005282068016806D0490347D544
:101F8000006800031DD4616C1CE021F016010160A3
:101F90002068416921F080014161206C08B9A06C82
:101FA00020B12068016821F00801016094F85C10FC
:101FB0003F208840A86084F8358084F83490216DF3
:101FC0001FE0E16B09B120468847606D00282BD0E7
:101FD000606DC00714D0052084F8350020680168C2
:101FE00021F0010101600098401C0090B84203D824
:101FF00020680068C007F6D184F8358084F83490F2
:10200000E16C002910D001B02046BDE8F04308473C
:102010000168C905D5D4016821F01001016084F878
:10202000358084F83490CCE7BDE8F88324000020A4
:102030002DE9F041044600F001FA06465CB10220A9
:1020400084F83500002584F834502068016821F0B8
:10205000010101600DE00120BDE8F08100F0EEF922
:10206000801B052805D920206065032084F83500F1
:10207000F2E720680068C007F0D1226811682048A4
:102080000140D4E901031843D4E90336334318432C
:1020900063691843A3691843E3691843236A184323
:1020A0000843616A042903D1D4E90B131943084397
:1020B000106020684069666A20F0070130460E43D0
:1020C000012704280CD1A06A0643E06A40B12046EB
:1020D000FFF7CCFD20B14020606584F83570BAE789
:1020E000206846612046FFF7ADFD94F85C203F2153
:1020F00091408160656584F835700020ACE7000090
:102100003F8010F02DE9F0410446866D90F83400D0
:10211000002501280DD0012084F8340094F8357092
:102120000020012F07D084F8340002252846BDE89E
:10213000F0810220FBE7022784F8357060652046B5
:10214000FFF7BEFD94F85C103F208840B060206827
:10215000016841F016010160206C20B1206801681F
:1021600041F0080101602068016841F0010101604F
:10217000DCE7000070B5044600F060F90546601C1D
:1021800002D004480078044400F058F9401BA042F3
:10219000FAD370BD180000202DE9F04186B014215B
:1021A0006846FFF791FA20480168002939D10121DA
:1021B00001601E480024016841F0010101600068CF
:1021C0004FF4805800F001000C27CDF80080CDE9D5
:1021D0000470032602250396CDE90154694614488C
:1021E00000F02EF84FF68070CDE9000502AA69468E
:1021F00082E8D0000F4800F023F84CF23370CDE9AC
:10220000000502AA694682E8D0000B4800F018F8E1
:1022100002AA694682E8D000CDE90085074800F0AF
:102220000FF806B0BDE8F0811000002038380240F9
:102230000014024000100240000C0240001802404E
:102240002DE9F84FDFF8BCA10022012503264FF04D
:102250000F090AF1040BAAF1040E00BF0B6805FA7E
:1022600002F42340A34270D10F7907F00307012F36
:1022700001D0022F16D187684FEA420806FA08FCFF
:1022800027EA0C07D1F80CC00CFA08FC4CEA070C42
:10229000C0F808C04768A7430C79C4F30014944001
:1022A0003C4344600C79E443A4070AD0C4684FEA75
:1022B000420C06FA0CF7BC438F6807FA0CF7274369
:1022C000C7600C7904F00304022C12D1D40800EB8F
:1022D000840CDCF820405707FF0E09FA07F824EABF
:1022E0000804D1F8108008FA07F848EA0408CCF886
:1022F000208004684FEA420C06FA0CF7BC430F79C1
:1023000007F0030707FA0CF7274307604C6814F43B
:10231000403F70D03C4C276847F4804727602468D2
:1023200022F0030704F480440094384C07EB040CBB
:10233000DCF8084897074FEA177809FA08F7BC4312
:10234000334FB84202D1002724E054E0314FB84265
:1023500001D101271EE0304FB84201D1022719E018
:102360002E4FB84201D1032714E02D4FB84201D1BE
:1023700004270FE02B4FB84201D105270AE02A4F6E
:10238000B84201D1062705E0284FB84201D10727FE
:1023900000E0082707FA08F72743CCF80878DAF8AE
:1023A00000405746D1F804C09C435FEACC2C00D5CE
:1023B0001C433C60DBF800405F46D1F804C09C43FE
:1023C0005FEA8C2C00D51C433C60DEF80040774669
:1023D000D1F804C09C435FEA8C3C00D51C433C60B0
:1023E000084F083F3C68D1F804C09C435FEACC3CEE
:1023F00000D51C433C60521C102AFFF42FAFBDE8EF
:10240000F88F0000083C0140443802400030014091
:10241000000002400004024000080240000C02409C
:10242000001002400014024000180240001C02404C
:102430000AB1816170470904FBE700000148806828
:10244000704700001800002002488168027811449B
:1024500081607047180000200B4810B5016841F4F6
:1024600000710160016841F480610160016841F41C
:1024700080710160032000F06FF80F2000F006F873
:1024800000F024F8002010BD003C024070B50D4D56
:1024900004464FF47A712878B1FBF0F00A490968D4
:1024A000B1FBF0F000F03AFB48B9102C07D2002243
:1024B0002146501E00F030F800206C6070BD0120F5
:1024C00070BD000018000020240000200A4808B554
:1024D000016841F480410160006800F48040009090
:1024E0000548001F016841F080510160006800F05C
:1024F0008050009008BD000044380240002809DBED
:1025000000F01F02012191404009800000F1E0200D
:10251000C0F8001170470000F0B40E4B1B680C4669
:10252000C3F30223C3F10705042D00D90425191DA7
:10253000072901D2002300E0DB1E012606FA05F17F
:10254000491E214099409E40761E16403143F0BC02
:1025500001F051B80CED00E0064900F007020868F0
:102560004FF6FF03184040EA0220034A1043086078
:10257000704700000CED00E00000FA052DE9F0477F
:102580000E46050065D0DFF81481D8F80000F7B2D8
:1025900000F00700B04207D288F80070D8F80000B9
:1025A00000F00700B04254D128683D4C810712D595
:1025B000400703D5206840F4E050206028780007E9
:1025C00003D5206840F4604020602068A96820F0AE
:1025D000F000084320602878C0072DD03049686893
:1025E0000839012812D0022813D0032811D0096815
:1025F000890700292DDA216821F0030101432160B8
:10260000FFF71CFF814641F2883A0EE00968890312
:10261000EFE709688901ECE7FFF710FFA0EB09017C
:10262000514502D90320BDE8F0872068696800F0B1
:102630000C00B0EB810FEFD1D8F80010404601F04C
:102640000701B14207D90770006800F00700B042E7
:1026500001D00120E7E72878400705D52068E96820
:1026600020F4E050084320602878000706D5206851
:10267000296920F4604040EAC100206000F038F889
:102680002168084AC1F30311515CC840064908603B
:1026900006480068FFF7FAFE0020C4E7003C02404D
:1026A0000838024070660008240000201C0000204A
:1026B0000448054900680968044AC1F38221515C55
:1026C000C840704724000020083802408066000897
:1026D0000448054900680968044AC1F34231515C65
:1026E000C840704724000020083802408066000877
:1026F000154810B5006810F00C02144813D04110B2
:10270000042A0FD0082A0ED10F4C241F22682368F8
:1027100002F03F025B0207D52068C0F38810A0FBDF
:10272000010106E0084610BD2168C1F38811A1FB34
:1027300000010023FEF790FF2168C1F30141491C0D
:102740004900B0FBF1F010BD083802400024F4004D
:102750002DE9F84F04006ED02078DFF84C93C007C5
:10276000A9F104054AD009F104000168C1F381010F
:10277000012908D00068C0F3810002280AD1D9F8E5
:102780000000400206D52868800337D5606800281D
:10279000E1D033E06068B0F5803F10D0B0F5A02FF5
:1027A000286810D020F480302860286820F4802029
:1027B00028606068A8B1FFF741FE06460DE0286872
:1027C00040F48030F4E740F480202860F7E700BF51
:1027D000FFF734FE801B642873D828688003F7D580
:1027E0000CE0FFF72BFE064605E000BFFFF726FED4
:1027F000801B6428F0D828688003F7D42078DFF89D
:10280000AC8280074FF0000A3ED5A748001D016842
:1028100011F00C0F08D00068C0F3810002280BD122
:10282000D9F80000400207D42868800716D5E06870
:10283000012800D112E033E1E068B8B10120C8F806
:102840000000FFF7FBFD064605E000BFFFF7F6FDC1
:10285000801B0228C0D828688007F7D5286821691E
:1028600020F0F80040EAC10028600DE0C8F800A0A0
:10287000FFF7E4FD064604E0FFF7E0FD801B0228B9
:102880001FD828688007F7D42078000722D5864F04
:1028900087486169703771B101210160FFF7CEFD92
:1028A000064604E0FFF7CAFD801B022809D83868F5
:1028B0008007F7D50EE0C0F800A0FFF7BFFD064681
:1028C00005E082E0FFF7BAFD801B02287DD838685A
:1028D0008007F7D42078400768D5DFF8CCB100270F
:1028E0000BF13C0BDBF80000C0000BD4DBF8001050
:1028F00041F08051CBF80010DBF80000012700F018
:10290000805000906B4E3068C00510D4306840F4A1
:1029100080703060FFF792FD009005E0FFF78EFDBC
:102920000099401A022850D83068C005F6D55E4E8E
:10293000A0686C3601280FD00528306810D020F030
:1029400001003060306820F004003060A068B8B149
:10295000FFF774FD00900FE0306840F00100F4E7ED
:1029600040F004003060F7E7FFF768FD0099411A76
:1029700041F28830814266D830688007F4D50EE095
:10298000FFF75CFD009007E0FFF758FD0099411A42
:1029900041F28830814256D830688007F4D42FB194
:1029A000DBF8001021F08051CBF80010A069C8B30B
:1029B0003D49091D0968C1F3810102294AD0022855
:1029C000504607D0C8F8600000E03CE0FFF736FD55
:1029D00004463BE04746C8F86000FFF72FFD064677
:1029E00005E000BFFFF72AFD801B02282BD82868CE
:1029F0008001F7D4D4E907010843A16A2E4A4908A7
:102A000002EB0141626A41EA8211084394F82C10FA
:102A100040EA0161C9F8001001203866FFF70EFD99
:102A2000044606E03EE000BFFFF708FD001B022859
:102A300009D828688001F7D534E000BFFFF7FEFC15
:102A4000001B022802D90320BDE8F88F2868800106
:102A5000F4D427E00128F7D0D9F80000E26900F4A7
:102A6000800191421CD1226A00F03F01914217D1AE
:102A700047F6C071626A0140B1EB821F10D1A26AB1
:102A80004FF0FF3300F4403103EB5202B1EB024F41
:102A900006D194F82C1000F07060B0EB016F01D0FB
:102AA0000120D1E70020CFE7043802400000474270
:102AB000800E4742007000400000FFFF70B51546D1
:102AC0000E46040003D094F8490010B107E001203D
:102AD00070BD002084F84800204600F01DF804F185
:102AE00008012068FFF722F93146A2682068FFF745
:102AF00051F9D4E901022946236BFFF7F9F821685F
:102B0000A06851F8202042F0010241F82020012065
:102B100084F84900002070BDFFF73EBB10B5401E91
:102B2000B0F1807F01D3012010BD4FF0E02460613F
:102B30000F21601700F05FFD0020A06107202061D9
:102B4000002010BD70477047F8B50168044608685A
:102B5000CA684B6910F00F0F4FF0000559D003F011
:102B6000010602F49077374365D0C10705D0D1053F
:102B700003D5216C41F001012164410705D5D90736
:102B800003D0216C41F002012164810705D5D907EA
:102B900003D0216C41F004012164010707D502F044
:102BA0002001314303D0216C41F008012164216CE4
:102BB00000293AD0800604D5900602D5204600F0C0
:102BC000E3FB20684069216CC0F38010090700D442
:102BD00060B3204600F0A3FB20684069400621D581
:102BE0002068143050E8001F21F0400140E8001236
:102BF000002AF5D1A06BA8B16C490165A06BFFF765
:102C000034F9002811D0A06B016D01B0BDE8F0408F
:102C1000084783060FD593060DD52046BDE8F8403A
:102C200000F0B2BB2046FFF78EFFF8BD2046FFF74D
:102C30008AFF2564F8BD266B2023012E79D1C606B4
:102C400077D5D60675D5086848680090486940066B
:102C500040D5A16B086840680004000CEAD0A28D42
:102C60008242E7D9E085C869B0F5807F2DD0206821
:102C70000C3050E8001F21F4807140E80012002A57
:102C8000F5D12068143050E8001F21F0010140E820
:102C90000012002AF5D12068143050E8001F21F0FE
:102CA000400140E80012002AF5D184F83E30256347
:102CB00020680C3050E8001F21F0100140E800129D
:102CC000002AF5D1A06BFFF787F8A08DE18D401A9F
:102CD00081B229E0A08DE18D401A81B2E08D0028FB
:102CE000A8D00029A6D020680C3050E8002F22F48C
:102CF000907240E80026002EF5D12068143050E88C
:102D0000002F22F0010240E80026002EF5D184F8C1
:102D10003E30256320680C3050E8002F22F010026E
:102D200040E80023002BF5D12046FFF70BFFF8BD4C
:102D3000FFE705062BD5150629D594F83D00212877
:102D4000F5D1A068B0F5805F01D12069B0B1206AEB
:102D5000411C2162216800784860E08C401E00041C
:102D6000000CE084E3D12068C16821F08001C160DB
:102D70002068C16841F04001C160D8E7206A00883E
:102D8000C0F308004860206A801C2062E5E7400626
:102D9000CDD55006CBD5CA68204622F04002CA6085
:102DA00084F83D3000F0D5F8C1E700002932000872
:102DB00070B5040004D094F83D00002510B106E081
:102DC000012070BD84F83C50204600F023F82420F8
:102DD00084F83D002068C16821F40051C16020469C
:102DE00000F032FB2068016921F490410161206804
:102DF000416921F02A0141612068C16841F4005114
:102E0000C1602564202084F83D0084F83E00002045
:102E100070BD0000F0B587B0064614216846FEF785
:102E200053FCDFF8D0C03068002533490222032369
:102E30000727324C60451CD12F481430066846F0F5
:102E400010060660006800F010000590086840F069
:102E5000010008600868694600F00100059058020A
:102E60008DE82500CDE903372046FFF7E9F907B0E3
:102E7000F0BDDFF88CC06045F9D11F481030D0F8A4
:102E800000C04CF4003CC0F800C0006800F4003002
:102E90000590086840F0010008600868694600F085
:102EA000010005900C208DE82500CDE90337204670
:102EB000FFF7C6F9144C134820604FF00060C4E9D6
:102EC00001054014C4E903506561A561E56125620F
:102ED00020466562FFF7ACF808B1FEF706FFB46361
:102EE000002211462620A663FFF716FB2620FFF7D7
:102EF00005FBBCE7001001403038024000000240F2
:102F000000440040886002400869002090F83E308C
:102F1000202B0ED159B152B190F83C30012B08D082
:102F2000012380F83C300023036300F013BB012031
:102F3000704702207047000000680349884202D1B0
:102F40000249012008707047004400400000002042
:102F500070477047FEE70000094808B5016841F472
:102F6000001101600068002200F40010009011467A
:102F70001020FFF7D1FABDE808401020FFF7BEBAD5
:102F80003038024010B58EB01C216846FEF79CFB1D
:102F90001C2107A8FEF798FB1A484FF02041102289
:102FA000016019494160062181600021C160C0E9CA
:102FB00004128161C16113020162C0E90913930225
:102FC000C0E90B134163816341640F20FF2300902C
:102FD000CDE901030DF10C0C11248CE81500CDE9AD
:102FE0000803CDE906100AAB0D9183E8150007AA86
:102FF00069460448FFF762FD002801D0FEF775FE20
:103000000EB010BD30680020040100A02DE9F0478B
:1030100086B014216846FEF757FB37480024016844
:1030200041F010010160016801F010010591016893
:1030300041F020010160016801F020010591016863
:1030400041F080010160016801F080010591016893
:1030500041F001010160016801F001010591016881
:1030600041F002010160016801F00201059101686F
:1030700041F008010160016801F008010591016853
:1030800041F0400101600068DFF8708000F040000E
:103090000590012204214046FFF7CAF90122DFF81A
:1030A0006090560231464846FFF7C2F9DFF854A057
:1030B000B701002239465046FFF7BAF9042001252E
:1030C000CDE900050320CDE9025069464046FFF7EF
:1030D000B7F80096CDE90154694648460394FFF7D6
:1030E000AFF80097CDE90154694650460394FFF7C5
:1030F000A7F806B0BDE8F087303802400010024063
:1031000000140240000402400C4810B50A49016056
:103110004FF4E1314160002181600C22C160C0E9BF
:1031200004128161C161FFF743FE002803D0BDE8AE
:103130001040FEF7DABD10BD00100140806800208D
:103140000C4810B50A4901604FF4E131416000219B
:1031500081600C22C160C0E904128161C161FFF786
:1031600027FE002803D0BDE81040FEF7BEBD10BD0D
:1031700000440040C4680020FEE7FEE77047704747
:10318000FFF762B930B593B030216846FEF79CFA7C
:1031900014210CA8FEF798FA1D480025016841F09B
:1031A00080510160006800F080501190194801685A
:1031B00041F4804101600068022400F480401190D5
:1031C00001200090000401908001CDE9064008AA8A
:1031D0000420A82182E813000B906846FFF7B8FA94
:1031E00008B172B6FEE70CA90F2081E831004FF458
:1031F000A0500F904FF48050109005210CA8FFF7BD
:10320000BDF9002801D072B6FEE713B030BD000052
:1032100040380240007000400248016841F47001EB
:103220000160704788ED00E010B5806B0021C1851A
:10323000C184FFF788FC10BD70B5846B20684069BD
:1032400094F83D10C0F3C0100025212904D118B115
:10325000E584204600F08AF82068406994F83E1022
:10326000C0F38010222904D118B1E585204600F072
:1032700056F8206C40F0100020642046FFF763FCF5
:1032800070BD10B50146806B09680968C9052FD467
:103290000021C18501680C3151E8002F22F48072B1
:1032A00041E80023002BF5D10168143151E8002FCB
:1032B00022F0010241E80023002BF5D1016814310E
:1032C00051E8002F22F0400241E80023002BF5D105
:1032D000202180F83E10016B012909D101680C31D1
:1032E00051E8002F22F0100241E80023002BF5D115
:1032F000016B012902D0FFF71FFE10BD818DFFF782
:1033000021FC10BD10B5806B016B012902D0FFF7C5
:103310001FFE10BD818D4908FFF714FC10BD016828
:103320000C3151E8002F22F4907241E80023002B69
:10333000F5D10168143151E8002F22F0010241E873
:103340000023002BF5D1016B012909D101680C3153
:1033500051E8002F22F0100241E80023002BF5D1A4
:10336000202180F83E1000210163704701680C3174
:1033700051E8002F22F0C00241E80023002BF5D1D4
:10338000202180F83D10704708B590F83E102229A2
:1033900001D0022008BD82684FF480539A4201D1C7
:1033A000016921B1816A9A421BD04AB10AE00268E0
:1033B000816A5268C2F308020A80816A891C08E0A7
:1033C000026972B10268526802F07F020A70816A73
:1033D000491C8162C18D491E0904090CC18503D0B5
:1033E00019E002685268F1E70168CA6822F0200219
:1033F000CA600168CA6822F48072CA6001684A69BA
:1034000022F001024A61202180F83E10016B01295F
:1034100003D0FFF791FD002008BD00210163016882
:103420000C3151E8002F22F0100241E80023002B5C
:10343000F5D101680A68D20602D50A684968009188
:10344000818DFFF77FFBE6E770B5044600680169F0
:10345000E26821F44051114301612169A068E269E9
:1034600008436169114308432168CA6849F20C6343
:103470009A430243CA6020684169A26921F44071FD
:103480001143416131492068884202D03049884265
:1034900002D1FFF71DF901E0FFF70AF9E269002305
:1034A000192164253226B2F5004F626828D0A0FBAE
:1034B0000101930F9200FEF7CFF80146B0FBF5F043
:1034C0006FF01802504301EB800006EB0010B0FBD8
:1034D000F5F000F0F002B1FBF5F002EB0012B1FBE9
:1034E000F5F06FF01803584301EB800006EB001075
:1034F000B0FBF5F000F00F0021681044886070BD4B
:10350000A0FB010192185B41FEF7A6F80146B0FB53
:10351000F5F00201B1FBF5F06FF01803584301EB31
:10352000800006EBC000B0FBF5F000F0F80002EB05
:103530004002B1FBF5F0584301EB800006EBC00000
:10354000B0FBF5F000F00700D6E7000000100140E6
:103550000014014038B58162828500251346044677
:103560000564222084F83E00A26B1C48D063A26B45
:103570001B481064A26B1B48D064A06B0A4605650B
:103580002168A06B091DFEF7BDFD20680168406839
:10359000009084F83C50206948B120680C3050E815
:1035A000001F41F4807140E80012002AF5D1206824
:1035B000143050E8001F41F0010140E80012002AD9
:1035C000F5D12068143050E8001F41F0400140E878
:1035D0000012002AF5D1002038BD00008332000817
:1035E00005330008393200080148FFF7ADBA000082
:1035F000C4680020FEE70907090E002804DB00F17B
:10360000E02080F80014704700F00F0000F1E02087
:1036100080F8141D704702E008C8121F08C1002A74
:10362000FAD170477047002001E001C1121F002A43
:10363000FBD1704701490860704700002C00002052
:10364000FEF798BD002101E000BF491C8142FBD379
:103650007047000070B50A490646002408884D8866
:1036600021464543204602F097FC02F0E9FD4FF069
:10367000D84002E0A0F88060641CAC42FAD370BD70
:10368000B86900202DE9F04F2B492C260A46887195
:1036900092884FF4305A4FF4285B4FF4487541F646
:1036A000631E2B274FF02A0C4FF0F00845F21059FB
:1036B0004FF4A0744FF4F073B8B10C80A1F80280FD
:1036C0004A4532D1A1F808A0A1F80AB03802888191
:1036D0000D804B80A2F5A640103801D10B804C80A4
:1036E000BDE8F04F002002F099BBA1F800804C80AB
:1036F0004A4507D1A1F808A0A1F80AB04FF42C5010
:10370000888105E072450E8105D14F81A1F80CC07A
:103710000B804D8002E0A1F80AC08F81A2F5A6407F
:103720001038DDD10C804B80DAE70E81A1F80AC099
:1037300072458F81CCD0CDE7B86900202DE9FE4FCE
:10374000161ACDE900104FF000085D1A47464FF0F9
:10375000FF30002E02DD4FF0010102E003D14FF0F7
:1037600000018B4602E08346C6F10006002D02DD13
:103770004FF0010002E003D14FF00000824602E06A
:103780008246C5F10005AE4201DD344600E02C461C
:10379000601C4FF00009029019E000980C9A81B269
:1037A000019880B200F018F8B0442F44A04504DD21
:1037B0000198A8EB040858440190A74203DD009843
:1037C0003F1B5044009009F101001FFA80F9029953
:1037D0008945E2DDBDE8FE8F10B5144602F0DCFB42
:1037E00002F02EFD4FF0D840A0F8804010BD10B57B
:1037F000CF2002F019FD002002F00AFDC12002F0E6
:1038000007FD302002F004FDED2002F00DFD6420E4
:1038100002F0FEFC032002F0FBFC122002F0F8FC98
:10382000812002F0F5FCE82002F0FEFC852002F089
:10383000EFFC102002F0ECFC7A2002F0E9FCCB2037
:1038400002F0F2FC392002F0E3FC2C2002F0E0FC54
:10385000002002F0DDFC342002F0DAFC022002F04D
:10386000D7FCF72002F0E0FC202002F0D1FCEA2097
:1038700002F0DAFC002002F0CBFC002002F0C8FCD1
:10388000C02002F0D1FC1B2002F0C2FCC12002F0DB
:10389000CBFC012002F0BCFCC52002F0C5FC3020AE
:1038A00002F0B6FC302002F0B3FCC72002F0BCFCF2
:1038B000B72002F0ADFC362002F0B6FC482002F042
:1038C000A7FC3A2002F0B0FC552002F0A1FCB12088
:1038D00002F0AAFC002002F09BFC1A2002F098FCE7
:1038E000B62002F0A1FC0A2002F092FCA22002F015
:1038F0008FFCF22002F098FC002002F089FC2620C8
:1039000002F092FC012002F083FCE02002F08CFC2B
:103910000F2002F07DFC2A2002F07AFC282002F021
:1039200077FC082002F074FC0E2002F071FC0820E5
:1039300002F06EFC542002F06BFCA92002F068FC3F
:10394000432002F065FC0A2002F062FC0F2002F026
:103950005FFC002002F05CFC002002F059FC00201B
:1039600002F056FC002002F053FCE12002F05CFC67
:10397000002002F04DFC152002F04AFC172002F056
:1039800047FC072002F044FC112002F041FC062015
:1039900002F03EFC2B2002F03BFC562002F038FCEB
:1039A0003C2002F035FC052002F032FC102002F031
:1039B0002FFC0F2002F02CFC3F2002F029FC3F20BE
:1039C00002F026FC0F2002F023FC2B2002F02CFC3E
:1039D000002002F01DFC002002F01AFC012002F081
:1039E00017FC3F2002F014FC2A2002F01DFC0020EE
:1039F00002F00EFC002002F00BFC002002F008FC9C
:103A0000EF2002F005FC112002F00EFC7820FFF7F9
:103A100017FEBDE81040292002F006BC10B5ED20CD
:103A200002F002FC012002F0F3FBFE2002F0F0FBAA
:103A3000EE2002F0F9FBDE2002F0EAFB212002F08A
:103A4000E7FBF12002F0F0FB012002F0E1FBDF20B8
:103A500002F0EAFB102002F0DBFBC42002F0E4FBE2
:103A60008F2002F0D5FBC62002F0DEFB002002F022
:103A7000CFFBE22002F0CCFBE22002F0C9FBE22007
:103A800002F0C6FBBF2002F0CFFBAA2002F0C0FB71
:103A9000B02002F0C9FB0D2002F0BAFB002002F0BA
:103AA000B7FB0D2002F0B4FB002002F0B1FB1120A7
:103AB00002F0AEFB002002F0ABFB192002F0A8FBE5
:103AC000002002F0A5FB212002F0A2FB002002F062
:103AD0009FFB2D2002F09CFB002002F099FB3D2073
:103AE00002F096FB002002F093FB5D2002F090FBB9
:103AF000002002F08DFB5D2002F08AFB002002F026
:103B000087FBB12002F090FB802002F081FB0020B7
:103B100002F07EFB8B2002F07BFB002002F078FBA2
:103B2000962002F075FB002002F072FBB22002F03A
:103B30007BFB002002F06CFB002002F069FB0220FE
:103B400002F066FB002002F063FB032002F060FB42
:103B5000002002F05DFBB32002F066FB002002F0C3
:103B600057FB002002F054FB002002F051FB002024
:103B700002F04EFB002002F04BFB002002F048FB5D
:103B8000002002F045FB002002F042FB002002F082
:103B90003FFB002002F03CFB002002F039FB00203C
:103BA00002F036FB002002F033FB002002F030FB75
:103BB000002002F02DFB002002F02AFB002002F082
:103BC00027FB002002F024FB002002F021FB002054
:103BD00002F01EFB002002F01BFB002002F018FB8D
:103BE000002002F015FB002002F012FBB42002F0CE
:103BF0001BFB8B2002F00CFB002002F009FB96203F
:103C000002F006FB002002F003FBA12002F000FB03
:103C1000002002F0FDFAB52002F006FB022002F0BF
:103C2000F7FA002002F0F4FA032002F0F1FA002083
:103C300002F0EEFA042002F0EBFA002002F0E8FABB
:103C4000B62002F0F1FA002002F0E2FA002002F0C1
:103C5000DFFAB72002F0E8FA002002F0D9FA0020DB
:103C600002F0D6FA3F2002F0D3FA002002F0D0FA98
:103C70005E2002F0CDFA002002F0CAFA642002F0C1
:103C8000C7FA002002F0C4FA8C2002F0C1FA00202A
:103C900002F0BEFAAC2002F0BBFA002002F0B8FA43
:103CA000DC2002F0B5FA002002F0B2FA702002F037
:103CB000AFFA002002F0ACFA902002F0A9FA00203E
:103CC00002F0A6FAEB2002F0A3FA002002F0A0FA1C
:103CD000DC2002F09DFA002002F09AFAB82002F0EF
:103CE000A3FA002002F094FA002002F091FA0020DA
:103CF00002F08EFA002002F08BFA002002F088FA1F
:103D0000002002F085FA002002F082FA002002F082
:103D10007FFABA2002F088FA242002F079FA002013
:103D200002F076FA002002F073FA002002F070FA36
:103D3000C12002F079FA202002F06AFA002002F095
:103D400067FA542002F064FA002002F061FAFF20C2
:103D500002F05EFA002002F05BFAC22002F064FA80
:103D60000A2002F055FA002002F052FA042002F074
:103D70004FFA002002F04CFAC32002F055FA3C2022
:103D800002F046FA002002F043FA3A2002F040FA2C
:103D9000002002F03DFA392002F03AFA002002F049
:103DA00037FA372002F034FA002002F031FA3C20D2
:103DB00002F02EFA002002F02BFA362002F028FA48
:103DC000002002F025FA322002F022FA002002F050
:103DD0001FFA2F2002F01CFA002002F019FA2C2002
:103DE00002F016FA002002F013FA292002F010FA6D
:103DF000002002F00DFA262002F00AFA002002F05C
:103E000007FA242002F004FA002002F001FA24202C
:103E100002F0FEF9002002F0FBF9232002F0F8F98D
:103E2000002002F0F5F93C2002F0F2F9002002F047
:103E3000EFF9362002F0ECF9002002F0E9F9322027
:103E400002F0E6F9002002F0E3F92F2002F0E0F999
:103E5000002002F0DDF92C2002F0DAF9002002F057
:103E6000D7F9292002F0D4F9002002F0D1F9262058
:103E700002F0CEF9002002F0CBF9242002F0C8F9BC
:103E8000002002F0C5F9242002F0C2F9002002F05F
:103E9000BFF9232002F0BCF9002002F0B9F9C420D8
:103EA00002F0C2F9622002F0B3F9002002F0B0F98A
:103EB000052002F0ADF9002002F0AAF9842002F0FA
:103EC000A7F9002002F0A4F9F02002F0A1F90020E7
:103ED00002F09EF9182002F09BF9002002F098F9F8
:103EE000A42002F095F9002002F092F9182002F0C7
:103EF0008FF9002002F08CF9502002F089F900209F
:103F000002F086F90C2002F083F9002002F080F91B
:103F1000172002F07DF9002002F07AF9952002F0D6
:103F200077F9002002F074F9F32002F071F9002013
:103F300002F06EF9E62002F06BF9002002F068F959
:103F4000C52002F071F9322002F062F9002002F07F
:103F50005FF9442002F05CF9002002F059F9652075
:103F600002F056F9002002F053F9762002F050F9E1
:103F7000002002F04DF9882002F04AF9002002F0FA
:103F800047F9C62002F050F9202002F041F9002044
:103F900002F03EF9172002F03BF9002002F038F958
:103FA000012002F035F9002002F032F9C72002F0BA
:103FB0003BF9002002F02CF9002002F029F9002042
:103FC00002F026F9002002F023F9C82002F02CF9B3
:103FD000002002F01DF9002002F01AF9002002F082
:103FE00017F9002002F014F9C92002F01DF9002091
:103FF00002F00EF9002002F00BF9002002F008F99F
:10400000002002F005F9002002F002F9002002F081
:10401000FFF8002002F0FCF8002002F0F9F8002080
:1040200002F0F6F8002002F0F3F8002002F0F0F8B9
:10403000002002F0EDF8002002F0EAF8002002F083
:10404000E7F8002002F0E4F8002002F0E1F8E020B8
:1040500002F0EAF8162002F0DBF8002002F0D8F8AF
:104060001C2002F0D5F8002002F0D2F8212002F046
:10407000CFF8002002F0CCF8362002F0C9F800207A
:1040800002F0C6F8462002F0C3F8002002F0C0F8A3
:10409000522002F0BDF8002002F0BAF8642002F0CD
:1040A000B7F8002002F0B4F87A2002F0B1F800204E
:1040B00002F0AEF88B2002F0ABF8002002F0A8F876
:1040C000992002F0A5F8002002F0A2F8A82002F042
:1040D0009FF8002002F09CF8B92002F099F8002027
:1040E00002F096F8C42002F093F8002002F090F855
:1040F000CA2002F08DF8002002F08AF8D22002F0E7
:1041000087F8002002F084F8D92002F081F800201E
:1041100002F07EF8E02002F07BF8002002F078F850
:10412000F32002F075F8002002F072F8E12002F0AE
:104130007BF8162002F06CF8002002F069F81C20D1
:1041400002F066F8002002F063F8222002F060F826
:10415000002002F05DF8362002F05AF8002002F04C
:1041600057F8452002F054F8002002F051F8522090
:1041700002F04EF8002002F04BF8642002F048F8FC
:10418000002002F045F87A2002F042F8002002F008
:104190003FF88B2002F03CF8002002F039F899201B
:1041A00002F036F8002002F033F8A82002F030F8D0
:1041B000002002F02DF8B92002F02AF8002002F0C9
:1041C00027F8C42002F024F8002002F021F8CA20C9
:1041D00002F01EF8002002F01BF8D22002F018F8BE
:1041E000002002F015F8D82002F012F8002002F0AA
:1041F0000FF8E02002F00CF8002002F009F8F3209C
:1042000002F006F8002002F003F8E22002F00CF8B9
:10421000052001F0FDFF002001F0FAFF0B2001F066
:10422000F7FF002001F0F4FF1B2001F0F1FF002058
:1042300001F0EEFF342001F0EBFF002001F0E8FF79
:10424000442001F0E5FF002001F0E2FF4F2001F0E3
:10425000DFFF002001F0DCFF612001F0D9FF00202A
:1042600001F0D6FF792001F0D3FF002001F0D0FF4C
:10427000882001F0CDFF002001F0CAFF972001F057
:10428000C7FF002001F0C4FFA62001F0C1FF0020FD
:1042900001F0BEFFB72001F0BBFF002001F0B8FF26
:1042A000C22001F0B5FF002001F0B2FFC72001F0ED
:1042B000AFFF002001F0ACFFD12001F0A9FF0020EA
:1042C00001F0A6FFD62001F0A3FF002001F0A0FF1F
:1042D000DD2001F09DFF002001F09AFFF32001F0A6
:1042E00097FF002001F094FFE32001F09DFF0520DF
:1042F00001F08EFF002001F08BFF0A2001F088FF03
:10430000002001F085FF1C2001F082FF002001F059
:104310007FFF332001F07CFF002001F079FF442073
:1043200001F076FF002001F073FF502001F070FFD4
:10433000002001F06DFF622001F06AFF002001F013
:1043400067FF782001F064FF002001F061FF882002
:1043500001F05EFF002001F05BFF972001F058FFA5
:10436000002001F055FFA62001F052FF002001F0CF
:104370004FFFB72001F04CFF002001F049FFC220A1
:1043800001F046FF002001F043FFC72001F040FF8D
:10439000002001F03DFFD12001F03AFF002001F0A4
:1043A00037FFD52001F034FF002001F031FFDD2080
:1043B00001F02EFF002001F02BFFF32001F028FF79
:1043C000002001F025FFE42001F02EFF012001F084
:1043D0001FFF002001F01CFF012001F019FF002049
:1043E00001F016FF022001F013FF002001F010FF82
:1043F0002A2001F00DFF002001F00AFF3C2001F00F
:1044000007FF002001F004FF4B2001F001FF002016
:1044100001F0FEFE5D2001F0FBFE002001F0F8FE41
:10442000742001F0F5FE002001F0F2FE842001F07E
:10443000EFFE002001F0ECFE932001F0E9FE0020E9
:1044400001F0E6FEA22001F0E3FE002001F0E0FE14
:10445000B32001F0DDFE002001F0DAFEBE2001F005
:10446000D7FE002001F0D4FEC42001F0D1FE0020D0
:1044700001F0CEFECD2001F0CBFE002001F0C8FE01
:10448000D32001F0C5FE002001F0C2FEDD2001F0C6
:10449000BFFE002001F0BCFEF32001F0B9FE0020B9
:1044A00001F0B6FEE52001F0BFFE002001F0B0FEF5
:1044B000002001F0ADFE002001F0AAFE002001F076
:1044C000A7FE022001F0A4FE002001F0A1FE292099
:1044D00001F09EFE002001F09BFE3C2001F098FEC2
:1044E000002001F095FE4B2001F092FE002001F02B
:1044F0008FFE5D2001F08CFE002001F089FE74200B
:1045000001F086FE002001F083FE842001F080FE91
:10451000002001F07DFE932001F07AFE002001F0E2
:1045200077FEA22001F074FE002001F071FEB3209E
:1045300001F06EFE002001F06BFEBE2001F068FE6F
:10454000002001F065FEC42001F062FE002001F0B1
:104550005FFECD2001F05CFE002001F059FED3206B
:1045600001F056FE002001F053FEDC2001F050FE69
:10457000002001F04DFEF32001F04AFE002001F082
:1045800047FEE62001F050FE112001F041FE002020
:1045900001F03EFE342001F03BFE002001F038FE29
:1045A000562001F035FE002001F032FE762001F0A9
:1045B0002FFE002001F02CFE772001F029FE0020C4
:1045C00001F026FE662001F023FE002001F020FE0F
:1045D000882001F01DFE002001F01AFE992001F054
:1045E00017FE002001F014FEBB2001F011FE002098
:1045F00001F00EFE992001F00BFE002001F008FEF4
:10460000662001F005FE002001F002FE552001F0B9
:10461000FFFD002001F0FCFD552001F0F9FD002018
:1046200001F0F6FD452001F0F3FD002001F0F0FD62
:10463000432001F0EDFD002001F0EAFD442001F0EF
:10464000E7FD002001F0E4FDE72001F0EDFD322060
:1046500001F0DEFD002001F0DBFD552001F0D8FD6A
:10466000002001F0D5FD762001F0D2FD002001F000
:10467000CFFD662001F0CCFD002001F0C9FD6720D0
:1046800001F0C6FD002001F0C3FD672001F0C0FD70
:10469000002001F0BDFD872001F0BAFD002001F0EF
:1046A000B7FD992001F0B4FD002001F0B1FDBB2061
:1046B00001F0AEFD002001F0ABFD992001F0A8FD56
:1046C000002001F0A5FD772001F0A2FD002001F0FF
:1046D0009FFD442001F09CFD002001F099FD562033
:1046E00001F096FD002001F093FD232001F090FDE4
:1046F000002001F08DFD332001F08AFD002001F043
:1047000087FD452001F084FD002001F081FDE820B7
:1047100001F08AFD002001F07BFD002001F078FD12
:10472000992001F075FD002001F072FD872001F055
:104730006FFD002001F06CFD882001F069FD002074
:1047400001F066FD772001F063FD002001F060FDBF
:10475000662001F05DFD002001F05AFD882001F087
:1047600057FD002001F054FDAA2001F051FD00206A
:1047700001F04EFDBB2001F04BFD002001F048FD93
:10478000992001F045FD002001F042FD662001F076
:104790003FFD002001F03CFD552001F039FD0020D7
:1047A00001F036FD552001F033FD002001F030FD11
:1047B000442001F02DFD002001F02AFD442001F0ED
:1047C00027FD002001F024FD552001F021FD0020EF
:1047D00001F01EFDE92001F027FDAA2001F018FDDF
:1047E000002001F015FD002001F012FD002001F075
:1047F0000FFD002001F018FDAA2001F009FDCF20D7
:1048000001F012FD002001F003FD002001F000FD89
:10481000002001F0FDFC002001F0FAFC002001F076
:10482000F7FC002001F0F4FC002001F0F1FC002076
:1048300001F0EEFC002001F0EBFC002001F0E8FCB0
:10484000002001F0E5FC002001F0E2FC002001F076
:10485000DFFC002001F0DCFC002001F0D9FC00208E
:1048600001F0D6FC002001F0D3FCF02001F0DCFCCC
:10487000002001F0CDFC502001F0CAFC002001F026
:10488000C7FC002001F0C4FC002001F0C1FCF320B3
:1048900001F0CAFC002001F0BBFCF92001F0C4FCCF
:1048A000062001F0B5FC102001F0B2FC292001F037
:1048B000AFFC002001F0ACFC3A2001F0B5FC552023
:1048C00001F0A6FC112001F0AFFC6420FEF7B8FE59
:1048D000292001F0A9FC352001F0A6FC002001F000
:1048E00097FC512001F0A0FCFF2001F091FC532027
:1048F00001F09AFC2C2001F08BFC552001F094FC77
:10490000822001F085FCBDE810402C2001F08CBC19
:104910002DE9F05F4FF470435521184601F09AFCE1
:104920004FF20104AA21204601F094FC651C52219B
:10493000284601F08FFCA61C0821304601F08AFCB5
:10494000E71C0121384601F085FC0D214FF4304071
:1049500001F080FC0D214BF2010001F07BFC0D21E8
:104960004BF2020001F076FC4FF436483421404609
:1049700001F070FC34214BF2016001F06BFC34213A
:104980004BF2026001F066FC4FF431490D214846BC
:1049900001F060FC4BF2011A0D21504601F05AFC67
:1049A0000D214BF2021001F055FC4FF4374B34212E
:1049B000584601F04FFC34214BF2017001F04AFCE3
:1049C00034214BF2027001F045FC00214FF43240DB
:1049D00001F040FC00214BF2012001F03BFC0021E2
:1049E0004BF2022001F036FC24214FF4384001F054
:1049F00031FC24214BF6010001F02CFC24214BF664
:104A0000020001F027FC01214FF43F4001F022FC9D
:104A10000F214FF4334001F01DFC0F214BF2013008
:104A200001F018FC0F214BF2023001F013FC34218D
:104A30004FF4394001F00EFC34214BF6011001F027
:104A400009FC34214BF6021001F004FC08214FF45C
:104A5000354001F0FFFB08214BF2015001F0FAFB59
:104A600008214BF2025001F0F5FB03214FF44240C4
:104A700001F0F0FB24214FF43A4001F0EBFB24213C
:104A80004BF6012001F0E6FB24214BF6022001F059
:104A9000E1FB00214FF43C4001F0DCFB78214BF6B8
:104AA000014001F0D7FB00214BF6024001F0D2FBA0
:104AB00000214FF43D4001F0CDFB78214BF6015031
:104AC00001F0C8FB00214BF6025001F0C3FB0021AE
:104AD0004FF43E4001F0BEFB64214BF6016001F053
:104AE000B9FB00214FF4514001F0B4FB33214DF2EA
:104AF000011001F0AFFB00214DF2021001F0AAFB02
:104B000034214DF2031001F0A5FB00214DF20410F9
:104B100001F0A0FB3A214DF2051001F09BFB0021B2
:104B20004DF2061001F096FB4A214DF2071001F0FC
:104B300091FB00214DF2081001F08CFB5C214DF23D
:104B4000091001F087FB00214DF20A1001F082FBF1
:104B500081214DF20B1001F07DFB00214DF20C1074
:104B600001F078FBA6214DF20D1001F073FB00213E
:104B70004DF20E1001F06EFBE5214DF20F1001F029
:104B800069FB01214DF2101001F064FB13214DF27D
:104B9000111001F05FFB01214DF2121001F05AFBE0
:104BA00054214DF2131001F055FB01214DF2141068
:104BB00001F050FB82214DF2151001F04BFB012159
:104BC0004DF2161001F046FBCA214DF2171001F00C
:104BD00041FB02214DF2181001F03CFB00214DF287
:104BE000191001F037FB02214DF21A1001F032FBCF
:104BF00001214DF21B1001F02DFB02214DF21C1082
:104C000001F028FB34214DF21D1001F023FB02219D
:104C10004DF21E1001F01EFB67214DF21F1001F036
:104C200019FB02214DF2201001F014FB84214DF2FA
:104C3000211001F00FFB02214DF2221001F00AFBBE
:104C4000A4214DF2231001F005FB02214DF22410A6
:104C500001F000FBB7214DF2251001F0FBFA022113
:104C60004DF2261001F0F6FACF214DF2271001F097
:104C7000F1FA02214DF2281001F0ECFADE214DF29A
:104C8000291001F0E7FA02214DF22A1001F0E2FAB0
:104C9000F2214DF22B1001F0DDFA02214DF22C1021
:104CA00001F0D8FAFE214DF22D1001F0D3FA0321C4
:104CB0004DF22E1001F0CEFA10214DF22F1001F01E
:104CC000C9FA03214DF2301001F0C4FA33214DF23C
:104CD000311001F0BFFA03214DF2321001F0BAFA9F
:104CE0006D214DF2331001F0B5FA00214FF452401E
:104CF00001F0B0FA33214DF2012001F0ABFA0021AE
:104D00004DF2022001F0A6FA34214DF2032001F009
:104D1000A1FA00214DF2042001F09CFA3A214DF253
:104D2000052001F097FA00214DF2062001F092FAD9
:104D30004A214DF2072001F08DFA00214DF20820A2
:104D400001F088FA5C214DF2092001F083FA00217C
:104D50004DF20A2001F07EFA81214DF20B2001F084
:104D600079FA00214DF20C2001F074FAA6214DF2DF
:104D70000D2001F06FFA00214DF20E2001F06AFAC9
:104D8000E5214DF20F2001F065FA01214DF21020CE
:104D900001F060FA13214DF2112001F05BFA0121BC
:104DA0004DF2122001F056FA54214DF2132001F079
:104DB00051FA01214DF2142001F04CFA82214DF2FA
:104DC000152001F047FA01214DF2162001F042FAB8
:104DD000CA214DF2172001F03DFA02214DF21820B0
:104DE00001F038FA00214DF2192001F033FA0221C6
:104DF0004DF21A2001F02EFA01214DF21B2001F094
:104E000029FA02214DF21C2001F024FA34214DF23E
:104E10001D2001F01FFA02214DF21E2001F01AFAA6
:104E200067214DF21F2001F015FA02214DF22020DA
:104E300001F010FA84214DF2212001F00BFA022139
:104E40004DF2222001F006FAA4214DF2232001F0B8
:104E500001FA02214DF2242001F0FCF9B7214DF2B4
:104E6000252001F0F7F902214DF2262001F0F2F998
:104E7000CF214DF2272001F0EDF902214DF228203B
:104E800001F0E8F9DE214DF2292001F0E3F90221D9
:104E90004DF22A2001F0DEF9F2214DF22B2001F033
:104EA000D9F902214DF22C2001F0D4F9FE214DF266
:104EB0002D2001F0CFF903214DF22E2001F0CAF987
:104EC00010214DF22F2001F0C5F903214DF23020C1
:104ED00001F0C0F933214DF2312001F0BBF903217B
:104EE0004DF2322001F0B6F96D214DF2332001F080
:104EF000B1F900214FF4534001F0ACF933214DF2E8
:104F0000013001F0A7F900214DF2023001F0A2F9C1
:104F100034214DF2033001F09DF900214DF20430AF
:104F200001F098F93A214DF2053001F093F9002192
:104F30004DF2063001F08EF94A214DF2073001F0B2
:104F400089F900214DF2083001F084F95C214DF21D
:104F5000093001F07FF900214DF20A3001F07AF9B1
:104F600081214DF20B3001F075F900214DF20C302A
:104F700001F070F9A6214DF20D3001F06BF900211E
:104F80004DF20E3001F066F9E5214DF20F3001F0DF
:104F900061F901214DF2103001F05CF913214DF25D
:104FA000113001F057F901214DF2123001F052F9A0
:104FB00054214DF2133001F04DF901214DF214301E
:104FC00001F048F982214DF2153001F043F9012139
:104FD0004DF2163001F03EF9CA214DF2173001F0C2
:104FE00039F902214DF2183001F034F900214DF267
:104FF000193001F02FF902214DF21A3001F02AF98F
:1050000001214DF21B3001F025F902214DF21C3037
:1050100001F020F934214DF21D3001F01BF902217D
:105020004DF21E3001F016F967214DF21F3001F0EC
:1050300011F902214DF2203001F00CF984214DF2DA
:10504000213001F007F902214DF2223001F002F97E
:10505000A4214DF2233001F0FDF802214DF224305D
:1050600001F0F8F8B7214DF2253001F0F3F80221F4
:105070004DF2263001F0EEF8CF214DF2273001F04D
:10508000E9F802214DF2283001F0E4F8DE214DF27A
:10509000293001F0DFF802214DF22A3001F0DAF870
:1050A000F2214DF22B3001F0D5F802214DF22C30D7
:1050B00001F0D0F8FE214DF22D3001F0CBF80321A4
:1050C0004DF22E3001F0C6F810214DF22F3001F0D4
:1050D000C1F803214DF2303001F0BCF833214DF21C
:1050E000313001F0B7F803214DF2323001F0B2F85F
:1050F0006D214DF2333001F0ADF800214FF45440F2
:1051000001F0A8F833214DF2014001F0A3F800218D
:105110004DF2024001F09EF834214DF2034001F0BF
:1051200099F800214DF2044001F094F83A214DF233
:10513000054001F08FF800214DF2064001F08AF899
:105140004A214DF2074001F085F800214DF2084058
:1051500001F080F85C214DF2094001F07BF800215C
:105160004DF20A4001F076F881214DF20B4001F03A
:1051700071F800214DF20C4001F06CF8A6214DF2BF
:105180000D4001F067F800214DF20E4001F062F889
:10519000E5214DF20F4001F05DF801214DF2104084
:1051A00001F058F813214DF2114001F053F801219C
:1051B0004DF2124001F04EF854214DF2134001F02F
:1051C00049F801214DF2144001F044F882214DF2DA
:1051D000154001F03FF801214DF2164001F03AF878
:1051E000CA214DF2174001F035F802214DF2184066
:1051F00001F030F800214DF2194001F02BF80221A6
:105200004DF21A4001F026F801214DF21B4001F049
:1052100021F802214DF21C4001F01CF834214DF21E
:105220001D4001F017F802214DF21E4001F012F866
:1052300067214DF21F4001F00DF802214DF2204090
:1052400001F008F884214DF2214001F003F8022119
:105250004DF2224000F0FEFFA4214DF2234000F069
:10526000F9FF02214DF2244000F0F4FFB7214DF286
:10527000254000F0EFFF02214DF2264000F0EAFF4A
:10528000CF214DF2274000F0E5FF02214DF22840EA
:1052900000F0E0FFDE214DF2294000F0DBFF0221AB
:1052A0004DF22A4000F0D6FFF2214DF22B4000F0E3
:1052B000D1FF02214DF22C4000F0CCFFFE214DF237
:1052C0002D4000F0C7FF03214DF22E4000F0C2FF39
:1052D00010214DF22F4000F0BDFF03214DF2304070
:1052E00000F0B8FF33214DF2314000F0B3FF03214D
:1052F0004DF2324000F0AEFF6D214DF2334000F030
:10530000A9FF00214FF4554000F0A4FF33214DF2D6
:10531000015000F09FFF00214DF2025000F09AFF73
:1053200034214DF2035000F095FF00214DF204505E
:1053300000F090FF3A214DF2055000F08BFF002164
:105340004DF2065000F086FF4A214DF2075000F062
:1053500081FF00214DF2085000F07CFF5C214DF2EE
:10536000095000F077FF00214DF20A5000F072FF63
:1053700081214DF20B5000F06DFF00214DF20C50D9
:1053800000F068FFA6214DF20D5000F063FF0021F0
:105390004DF20E5000F05EFFE5214DF20F5000F08F
:1053A00059FF01214DF2105000F054FF13214DF22E
:1053B000115000F04FFF01214DF2125000F04AFF52
:1053C00054214DF2135000F045FF01214DF21450CD
:1053D00000F040FF82214DF2155000F03BFF01210B
:1053E0004DF2165000F036FFCA214DF2175000F072
:1053F00031FF02214DF2185000F02CFF00214DF238
:10540000195000F027FF02214DF21A5000F022FF40
:1054100001214DF21B5000F01DFF02214DF21C50E6
:1054200000F018FF34214DF21D5000F013FF02214F
:105430004DF21E5000F00EFF67214DF21F5000F09C
:1054400009FF02214DF2205000F004FF84214DF2AB
:10545000215000F0FFFE02214DF2225000F0FAFE32
:10546000A4214DF2235000F0F5FE02214DF224500C
:1054700000F0F0FEB7214DF2255000F0EBFE0221C6
:105480004DF2265000F0E6FECF214DF2275000F0FD
:10549000E1FE02214DF2285000F0DCFEDE214DF24B
:1054A000295000F0D7FE02214DF22A5000F0D2FE22
:1054B000F2214DF22B5000F0CDFE02214DF22C5086
:1054C00000F0C8FEFE214DF22D5000F0C3FE032176
:1054D0004DF22E5000F0BEFE10214DF22F5000F084
:1054E000B9FE03214DF2305000F0B4FE33214DF2ED
:1054F000315000F0AFFE03214DF2325000F0AAFE11
:105500006D214DF2335000F0A5FE00214FF45640BE
:1055100000F0A0FE33214DF2016000F09BFE00215F
:105520004DF2026000F096FE34214DF2036000F06F
:1055300091FE00214DF2046000F08CFE3A214DF204
:10554000056000F087FE00214DF2066000F082FE4B
:105550004A214DF2076000F07DFE00214DF2086007
:1055600000F078FE5C214DF2096000F073FE00212E
:105570004DF20A6000F06EFE81214DF20B6000F0EA
:1055800069FE00214DF20C6000F064FEA6214DF290
:105590000D6000F05FFE00214DF20E6000F05AFE3B
:1055A000E5214DF20F6000F055FE01214DF2106033
:1055B00000F050FE13214DF2116000F04BFE01216E
:1055C0004DF2126000F046FE54214DF2136000F0DF
:1055D00041FE01214DF2146000F03CFE82214DF2AB
:1055E000156000F037FE01214DF2166000F032FE2A
:1055F000CA214DF2176000F02DFE02214DF2186015
:1056000000F028FE00214DF2196000F023FE022177
:105610004DF21A6000F01EFE01214DF21B6000F0F9
:1056200019FE02214DF21C6000F014FE34214DF2EF
:105630001D6000F00FFE02214DF21E6000F00AFE18
:1056400067214DF21F6000F005FE02214DF220603F
:1056500000F000FE84214DF2216000F0FBFD0221EC
:105660004DF2226000F0F6FDA4214DF2236000F01F
:10567000F1FD02214DF2246000F0ECFDB7214DF266
:10568000256000F0E7FD02214DF2266000F0E2FD0A
:10569000CF214DF2276000F0DDFD02214DF22860A0
:1056A00000F0D8FDDE214DF2296000F0D3FD02218B
:1056B0004DF22A6000F0CEFDF2214DF22B6000F099
:1056C000C9FD02214DF22C6000F0C4FDFE214DF217
:1056D0002D6000F0BFFD03214DF22E6000F0BAFDF9
:1056E00010214DF22F6000F0B5FD03214DF2306026
:1056F00000F0B0FD33214DF2316000F0ABFD03212D
:105700004DF2326000F0A6FD6D214DF2336000F0E5
:10571000A1FD5521184600F09DFDAA21204600F06C
:1057200099FD5221284600F095FD0821304600F0F1
:1057300091FD0021384600F08DFDCC21484600F057
:1057400089FD0021504600F085FD0521404600F00E
:1057500081FD7021584600F07DFD70214BF20170F3
:1057600000F078FD01214FF4384000F073FD032173
:105770004BF6010000F06EFD03214BF6020000F035
:1057800069FD03214BF6030000F064FD02214FF494
:105790003C4000F05FFD00214BF6014000F05AFD57
:1057A00000214BF6024000F055FDD0214FF4494056
:1057B00000F050FD02214CF6011000F04BFD50218D
:1057C0004CF6021000F046FD50214CF6031000F09C
:1057D00041FD50214CF6041000F03CFD00214FF437
:1057E000545000F037FD55214FF4685000F032FD61
:1057F0004FF4885000F018FD7820FDF723FFBDE836
:10580000F05F4FF4245000F00FBD10B5E22000F01F
:105810000BFD1D2000F0FCFC022000F0F9FC042030
:1058200000F0F6FC6420FDF70DFFE02000F0FCFC2A
:10583000012000F0EDFC0A20FDF702FFE02000F05F
:10584000F3FC032000F0E4FC0C20FDF7F9FE01203E
:1058500000F0EAFC0A20FDF7F3FEE62000F0E4FC8D
:105860002F2000F0D5FCFF2000F0D2FCFF2000F03C
:10587000CFFCB02000F0D8FC202000F0C9FC0020B4
:1058800000F0C6FC032000F0C3FC40F21F3000F023
:10589000BFFC012000F0BCFC40F2DF1000F0B8FCBF
:1058A000002000F0B5FCB42000F0BEFC042000F0A5
:1058B000AFFC40F21F4000F0ABFC002000F0A8FC61
:1058C0002E2000F0A5FC002000F0A2FC002000F03B
:1058D0009FFC002000F09CFC002000F099FCB6200A
:1058E00000F0A2FC022000F093FC4FF4037000F0E3
:1058F0008FFC002000F08CFC172000F089FC1520A4
:1059000000F086FC002000F083FC002000F080FC0A
:10591000F02000F089FC032000F07AFC292000F040
:1059200083FCD02000F080FC002000F071FCBE2041
:1059300000F07AFC052000F06BFCFE2000F068FC13
:10594000012000F065FC002000F062FC002000F067
:105950005FFC002000F05CFCB82000F065FC032038
:1059600000F056FC012000F053FCBA2000F05CFC73
:10597000BDE81040012000F04BBC10B5112000F034
:1059800053FC7820FDF75CFE362000F04DFC002033
:1059900000F03EFC3A2000F047FC052000F038FC07
:1059A000B22000F041FC0C2000F032FC0C2000F092
:1059B0002FFC002000F02CFC332000F029FC3320C9
:1059C00000F026FCB72000F02FFC352000F020FC72
:1059D000BB2000F029FC322000F01AFCC02000F0AF
:1059E00023FC0C2000F014FCC22000F01DFC012060
:1059F00000F00EFCC32000F017FC102000F008FCA3
:105A0000C42000F011FC202000F002FCC62000F0B1
:105A10000BFC0F2000F0FCFBD02000F005FCA420C4
:105A200000F0F6FBA12000F0F3FBE02000F0FCFB0F
:105A3000D02000F0EDFB002000F0EAFB022000F097
:105A4000E7FB072000F0E4FB0A2000F0E1FB282040
:105A500000F0DEFB322000F0DBFB442000F0D8FB3E
:105A6000422000F0D5FB062000F0D2FB0E2000F013
:105A7000CFFB122000F0CCFB142000F0C9FB172054
:105A800000F0C6FBE12000F0CFFBD02000F0C0FB0F
:105A9000002000F0BDFB022000F0BAFB072000F060
:105AA000B7FB0A2000F0B4FB282000F0B1FB312046
:105AB00000F0AEFB542000F0ABFB472000F0A8FB49
:105AC0000E2000F0A5FB1C2000F0A2FB172000F028
:105AD0009FFB1B2000F09CFB1E2000F099FB2A205E
